:100AD4004144432052656164696E673A200052655F
:100AE4006164696E673A20256400566F6C743A201D
:100AF40025302E3266560000000000000000000081
:100B040000000000000000000000000000000000E1
:100B140000000000000000000000000000000000D1
:100B240000000000000000000000000000000000C1
:100B340000000000000000000000000000000000B1
:100B440000000000000000000000000000000000A1
:100B54000000000000000000000000000000000091
:100B64000000000000000000000000000000000081
:100B74000000000000000000000000000000000071
:100B84000000000000000000000000000000000061
:100B94000000000000000000000000000000000051
:100BA4000000000000000000000000000000000041
:100BB4000000000000000000000000000000000031
:100BC4000000000000000000000000000000000021
:100BD4000000000000000000000000000000000011
:100BE4000000000000000000000000000000000001
:100BF400000000000000000000000000E0F0F0E051
:100C0400607878786060E0F0F0A0000000000000F8
:100C140000000000000000000000000000000000D0
:100C240000000000000000000000000000000000C0
:100C340000000000000000000000000000000000B0
:100C440000000000000000000000000000000000A0
:100C54000000000000000000000000000000000090
:100C64000000000000000000000000000000000080
:100C740000000000000000E0E2F7FF0F03F9FCFCB5
:100C8400FCFCECFCFCFCFCFC01031FFFF7E0C000D7
:100C94000000000000003C7C76E2C2C68E0000FE2C
:100CA400FEFE4242E2060E0002FE1E3E78F0C00244
:100CB400FE06000002FEFE8282827E7C380002FE76
:100CC400FEFE8282E67C3C0000F0FCFC060202068A
:100CD4003EFCF8000002FE1E7CF0E08006FE0200EE
:100CE40002FEFEFE0000E0F8FC060202020E000016
:100CF4003C7CF6E2C2860E00093F1F3CF0E7EFCFD2
:100D04008F8F8F8F8FCFCFEFE0F81E3F3B00000017
:100D14000000000000000C181010090F0700000F5D
:100D24000F0F0000000C0C00000F08000001070F5B
:100D34000F000000080F0F00000000000000000F6B
:100D44000F0F0001070F0E080003070F081010080B
:100D54000F07030000080F000001030F0F0F00002E
:100D6400000F0F0F000003070F081010180C0000ED
:100D74000C181010090F0700000000000103010007
:100D84000103070701010103010100000000000045
:100D9400000000000000000000000000000000004F
:100DA400000000000000000000000000000000003F
:100DB400000000000000000000000000000000002F
:100DC400000000000000000000000000000000001F
:100DD400000000000000000000000000000000000F
:100DE40000000000000000000000000000000000FF
:100DF40000000000000000000000000000000000EF
:100E040000000000000000000000000000000000DE
:100E140000000000000000000000000000000000CE
:100E240000000000000000000000000000000000BE
:100E340000000000000000000000000000000000AE
:100E4400000000000000000000000000000000009E
:100E5400000000000000000000000000000000008E
:100E6400000000000000000000000000000000007E
:100E7400000000000000000000000000000000006E
:100E8400000000000000000000000000000000005E
:100E9400000000000000000000000000000000004E
:100EA400000000000000000000000000000000003E
:100EB400000000000000000000000000000000002E
:100EC400000000000000000000000000000000001E
:100ED400000000000000000000000000000000000E
:100EE40000000000000000000000000000000000FE
:070EF40000000000000000F7
:1019B30043B30843B40843B31043B41075BE02D213
:0219C300C6223A
:10195F00E4FFFEC2EFD2EE30EFFDAFC37E00EFC467
:10196F00F8540FC868FFEEC454F048FEADC2ED4204
:01197F000760
:011980002244
:1012B100E4F5B1F5B2F5B3F5B4F5ACF5AD53E8F03D
:1012C10043E80143AC0153ADFEF5F643F60243E1B9
:1012D100011219B312138B7BFF7A0A79FB121838AA
:1012E1007FE87E037D007C001217A21214C4E4FD86
:1012F100FC7F02FE12160D7BFF7A0A79D412193A8D
:1013010012195F8E4E8F4F7553FF75540A7555E252
:10131100854E56854F577B007A0079361206C1AC4F
:101321004EAD4FEC12010E7B337A337953783A127A
:1013310000038F4D8E4C8D4B8C4A7553FF75540AAB
:101341007555EE8F598E588D578C567B007A0079E2
:10135100221206C17D147C007F047E0012160D7BD3
:10136100007A00793612193A7D1E7C007F067E00D4
:1013710012160D7B007A00792212193A7FC87E007D
:0A1381007D007C001217A202130188
:10187A0053B1BF53B2BF53B17F53B27F7598504330
:10188A008920438780438E1053C4DFAB07AA06A979
:10189A0005A8047F407E427D0F7C0012055FEF049D
:0918AA00F404F58DD28ED29922CE
:101540008F0B8E0A8D098C0853B1BF53B2BF53B1B4
:101550007F53B27F75985043878053C4F843C420AB
:10156000AB0BAA0AA909A8087F407E427D0F7C0028
:1015700012055FC374FF9FFF74FF9EFEE49DFDE4B0
:101580009CFC78081206108FC6AB0BAA0AA909A802
:10159000087F407E427D0F7C0012055FC374FF9F71
:0915A000FF8FC543C408D2992253
:0719E9003098FDAF99C29890
:0119F00022D4
:0819F100C2998F993099FD2283
:1015A9008F0F8E0E8D0D8C0C53B1FB53B2FB53B3C1
:1015B900BF53B4BF75F85075C40853C4DFAB0FAA45
:1015C9000EA90DA80C7F407E427D0F7C0012055F9D
:1015D900C374FF9FFF74FF9EFEE49DFDE49CFC78AD
:1015E900081206108FC6AB0FAA0EA90DA80C7F40D2
:1015F9007E427D0F7C0012055FC374FF9FFF8FC57C
:0416090043C40822AC
:0719F90030F8FDAF9AC2F8BF
:011A000022C3
:081A0100C2F98F9A30F9FD22B1
:101757008F138E128D118C10538EF7438901D28C03
:10176700E4FFFEFDFCAB13AA12A911A810C31205D2
:10177700FF6025758A7E758CFF308DFDC28DE51360
:1017870024FFF513E51234FFF512E51134FFF511C7
:0B179700E51034FFF51080C8C28C2262
:1017A2008F538E528D518C50538EF7438901D28CB8
:1017B200E4FFFEFDFCAB53AA52A951A850C3120587
:1017C200FF6025758ACA758CFA308DFDC28DE5538E
:1017D20024FFF553E55234FFF552E55134FFF5513C
:0B17E200E55034FFF55080C8C28C2297
:1017ED008F178E168D158C14538EEF438910D28E54
:1017FD00E4FFFEFDFCAB17AA16A915A814C312052C
:10180D00FF6025758BEA758DCB308FFDC28FE51787
:10181D0024FFF517E51634FFF516E51534FFF5151C
:0B182D00E51434FFF51480C8C28E22C1
:101709008F1B8E1A8D198C1853C9BF53C9DF43C952
:1017190010D2CAE4FFFEFDFCAB1BAA1AA919A8182E
:10172900C31205FF602575CC3075CDF830CFFDC2E9
:10173900CFE51B24FFF51BE51A34FFF51AE519342B
:0E174900FFF519E51834FFF51880C8C2CA2252
:101669008F1F8E1E8D1D8C1C75C40743C408E4FF93
:10167900FEFDFCAB1FAA1EA91DA81CC31205FF6015
:101689002B75C52C75C6CFE5C45410641070F8537A
:10169900C4EFE51F24FFF51FE51E34FFF51EE51D08
:1016A90034FFF51DE51C34FFF51C80C253C4F72235
:1016B9008F6F8E6E8D6D8C6C75C40743C408E4FF03
:1016C900FEFDFCAB6FAA6EA96DA86CC31205FF6085
:1016D9002B75C5D875C6FFE5C45410641070F8534E
:1016E900C4EFE56F24FFF56FE56E34FFF56EE56D28
:1016F90034FFF56DE56C34FFF56C80C253C4F722F5
:100EFB000000000000000000000000000000002FB8
:100F0B0000000000000000070000000700000014B4
:100F1B00007F0014007F00140024002A007F002AA9
:100F2B000012002300130008006400620036004921
:100F3B0000550022005000000005000300000000D7
:100F4B000000001C002200410000000000410022B4
:100F5B00001C000000140008003E000800140008EC
:100F6B000008003E000800080000000000A0006020
:100F7B0000000008000800080008000800000060DE
:100F8B0000600000000000200010000800040002B8
:100F9B00003E005100490045003E00000042007F2A
:100FAB000040000000420061005100490046002152
:100FBB0000410045004B0031001800140012007F67
:100FCB00001000270045004500450039003C004A51
:100FDB0000490049003000010071000900050003C1
:100FEB000036004900490049003600060049004917
:100FFB000029001E00000036003600000000000033
:10100B0000560036000000000008001400220041CA
:10101B000000001400140014001400140000004120
:10102B000022001400080002000100510009000614
:10103B000032004900590051003E007C00120011A3
:10104B000012007C007F0049004900490036003E39
:10105B000041004100410022007F0041004100227D
:10106B00001C007F0049004900490041007F000936
:10107B00000900090001003E004100490049007AC7
:10108B00007F000800080008007F00000041007F7F
:10109B0000410000002000400041003F0001007FA4
:1010AB000008001400220041007F00400040004077
:1010BB000040007F0002000C0002007F007F000454
:1010CB0000080010007F003E004100410041003E3F
:1010DB00007F0009000900090006003E0041005195
:1010EB000021005E007F0009001900290046004620
:1010FB00004900490049003100010001007F000157
:10110B000001003F004000400040003F001F002056
:10111B0000400020001F003F004000380040003F0F
:10112B00006300140008001400630007000800703F
:10113B000008000700610051004900450043000012
:10114B00007F004100410000005500AA005500AA95
:10115B000055000000410041007F00000004000228
:10116B00000100020004004000400040004000402D
:10117B000000000300050000000000200054005494
:10118B0000540078007F00480044004400380038C9
:10119B000044004400440020003800440044004850
:1011AB00007F003800540054005400180008007EE3
:1011BB00000900010002001800A400A400A4007C98
:1011CB00007F000800040004007800000044007D4C
:1011DB0000400000004000800084007D0000007F84
:1011EB00001000280044000000000041007F004078
:1011FB000000007C0004001800040078007C00084C
:10120B000004000400780038004400440044003817
:10121B0000FC0024002400240018001800240024E3
:10122B00001800FC007C00080004000400080048C3
:10123B0000540054005400200004003F00440040C0
:10124B000020003C004000400020007C001C0020DF
:10125B0000400020001C003C004000300040003CDF
:10126B0000440028001000280044001C00A000A02F
:10127B0000A0007C004400640054004C00440000BB
:10128B000010007C008200000000000000FF000046
:10129B00000000000082007C00100000000000062F
:0612AB0000090009000625
:10138B007FAE7E001219847FD57E001219847F8078
:10139B007E001219847FA87E001219847F3F7E0085
:1013AB001219847FD37E001219841219817F407E1B
:1013BB00001219847F8D7E001219847F147E001217
:1013CB0019847F207E001219841219817FA17E005F
:1013DB001219847FC87E001219847FDA7E001219DD
:1013EB00847F127E001219847F817E001219847F04
:1013FB00CF7E001219847FD97E001219847FF17E73
:10140B00001219847FDB7E001219847F407E00124C
:10141B0019847FA47E001219847FA67E0012198482
:0A142B007FAF7E001219840214C482
:021435008F53D3
:10143700E4F556F557E5712405FFE43570FEC3EF73
:101447009480EE648094805005E553B40A03121922
:101457009BE553640A606574E02553F553E557250A
:10146700E0FFE55633FEAD53ED3395E0FC900EFB00
:1014770075F00AED120623EC75F00AA42583F583AF
:10148700E5822FF582E5833EF583E493F5547401F5
:1014970093F555FFAE541218B70571E57170020543
:1014A700700557E557700205566405455670AEFF3F
:0C14B700FE1218B70571E5717002057097
:0114C3002206
:10193A008B508A518952AB50AA51A9521204CB60DA
:10194A00130552E5527002055114F91204CBFF1225
:05195A00143580E222BB
:1014C4007F217E00121984E4FFFE1219847F7F7E3F
:1014D400001219847F227E00121984E4FFFE12197F
:1014E400847F077E001219841219C51218B3E4F51B
:1014F40050F551E4FFFE1218B70551E5517002058D
:1015040050C3E5506480948440E97F217E00121921
:1015140084E4FFFE1219847F7F7E001219847F22E7
:101524007E00121984E4FFFE1219847F077E0012E4
:0C15340019841219C57F407E000218B710
:10199B000573E57370020572537307757200E4FDEE
:0819AB00FCAF73AE7202160DD1
:10160D008E588F598C5A8D5BD3E5599407E55894B4
:10161D00005048E55B947FE55A64809480503C858A
:10162D005872855973855A70855B717F217E0012C2
:10163D001984AF5BAE5A1219847F7F7E0012198414
:10164D007F227E00121984AF59AE581219847F077C
:0C165D007E001219841219C51218B32265
:061838008B508A51895219
:10183E00E4FDFCFFFE12160D1219C51218B3E4F5E5
:10184E0053F554AB50AA51A9528554828553831235
:10185E0004E4FF3395E0FE1218B70554E554700208
:0B186E000553C3E5536480948440D808
:01187900224C
:0419C5007F787E00A9
:0D19C900C294D294D293C294C2930218B774
:0919E000C294D293C294D2942265
:0A19D600D294D2932094FDC2932214
:0418B3007F407E00F4
:0418B700AB07AA06CB
:1018BB00C2937D07ED3395E0C364809480401AAEEC
:1018CB0002EBA805088006CEA2E713CE13D8F813B7
:0C18DB009294D293C2931D80DB0219D6B8
:03198100E4FFFE82
:101984008E5C8F5D1219C5E4FFFE1218B7AF5DAE11
:071994005C1218B70219E014
:030000000218E7FC
:1018E70075C7AA75C75575FD5A75C7AA75C75575C2
:1018F700FDA5787FE4F6D8FD9000007FFF7E03E426
:0C190700F0A3DFFCDEFA7581730212B160
:10000300EC4D6011E8497017ED33EC3304600DE4F7
:10001300FCFFFEFD22E933E8330470F802017C1291
:10002300014758046009E4CC248150062850090292
:100033000186284003020183C0E0EB4A7044B98083
:1000430006D0E0FB020172EF4E701CBD8008EBFF8F
:10005300EAFEE9FD80EBE98DF0A4FEE5F00200EC99
:10006300E9CDF9EAFEEBFFEF89F0A4FCE5F0CE89D8
:10007300F0A42EFFE435F0CD89F0A42DFEE435F095
:100083008067EF4E7005BD80D780C3EF8BF0A4ACC3
:10009300F0EE8BF0A42CFCE435F0F8EF8AF0A42CFE
:1000A300E5F038FCE433CB8DF0A42CFCE5F03BF811
:1000B300EE8AF0A42CFCE5F038F8E433CF89F0A401
:1000C3002CFCE5F038CF3400CE89F0A42FFFE5F007
:1000D3003EFEE433C98DF0A42EFEE5F039CD8AF05F
:1000E300A42FFFE5F03EFEE43DFD33D0E0FB5007D7
:1000F3000BBB000F020186EC2CFCEF33FFEE33FE4B
:06010300ED33FD02015E78
:1001090075F020800E75F010800575F0087D007E71
:10011900007F003392D530D5031205F1EC3340103E
:10012900EF33FFEE33FEED33FDEC33FCD5F0ED227A
:0E013900E5F0247EA2D513CC92E7CDCEFF22B6
:10066500E5672453F8E6056722785030070278538A
:10067500E475F00112062F0204CB2000EB7F2ED289
:10068500008018EF540F2490D43440D4FF30040B6D
:10069500EF24BFB41A0050032461FFE5686002151A
:1006A50068056BE56B7002056A30070D7850E475D7
:1006B500F00112062FEF0205110219137403D20778
:1006C5008003E4C207F5678B508A518952E4F568C7
:1006D500F56AF56BE56860077F201206A080F57561
:1006E50069FFC201C200C202C203C205C206C20836
:1006F50012066EFF700D3007057F001206B1AF6B55
:10070500AE6A22B4255FC2D5C20412066EFF24D09C
:10071500B40A00501A75F00A786830D50508B6FF96
:100725000106C6A426F620D5047002D20380D9247A
:10073500CFB41A00EF5004C2E5D20402099ED201DB
:1007450080C6D20080C0D20280BCD2D580BAD20584
:1007550080B47F201206A02002077401B56800400E
:10076500F1120665FF1206A00206D9D208D206804C
:1007750095120665FB120665FA120665F94A4B7075
:100785000679957A0A7BFF20022EE568602A7E00AD
:100795008E827583001204E460060EEE656970F0C2
:1007A500C2D5EBC0E0EAC0E0E9C0E0EE1209FED038
:1007B500E0F9D0E0FAD0E0FB1204CBFF60AAEBC071
:1007C500E0EAC0E0E9C0E01206A0D0E02401F9D0DB
:1007D500E03400FAD0E0FBE5690460DCD569D98036
:1007E50087D20280A21209E160F7E569700104125F
:1007F5000191A969600DE569600914F569120A8816
:10080500EF60F3EA30E702F404C3995077EAF42580
:10081500690430E701E404F569800D1209E160C15E
:10082500EA05692569120191EA7866F630E701E47F
:10083500256904D56904200501141209FEE4C0E008
:10084500120A887866E6601320E70714F612068810
:10085500802204F6D0E014C0E07F00120688E56926
:10086500600712067F1569800B30050312067FD0DD
:10087500E00206D9D0E00480C51209E160A0E5696F
:10088500041201917866EAF6E56920050260010423
:0508950024041209FE1D
:10089A0074FF04C0E0120A88120688E5692005027E
:1008AA00600312067FD0E0B569E87F4512069278A8
:1008BA0066E67F2B30E7047F2DF404C0E01206A021
:1008CA00D0E075F00A84C0F0120689D0E0120689D9
:1008DA000206D9791080027908C206C2088008D2B5
:1008EA00D5790A8004790AC2D5E569047002F569E6
:1008FA00E4FAFDFEFF120665FC7B082001131206CE
:10090A0065FD7B1030000A120665FE120665FF7B44
:10091A0020EC3382D592D55013C3E43000069FFFF2
:10092A00E49EFEE42001039DFDE49CFCE4CBF8C2B6
:10093A0001EC700CCFCECDCCE824F8F870F3801718
:10094A00C3EF33FFEE33FEED33FDEC33FCEB33FB49
:10095A00994002FB0FD8E9EB300105F8D0E0C44812
:10096A00B201C0E00AEC4D4E4F78207B0070C2EA1B
:10097A00B5690040BCC0E0120A00D0F0D0E0200106
:10098A0004C4C0E0C4B201C0F0120689D0F0D5F0A8
:10099A00EB0206D912063F07765308DD5807474C83
:1009AA0007434208E14F08E94408E949075C43085C
:1009BA00EF55082046087E4507EA470AB550074B17
:1009CA002D074F2E07722B0753230770200A9E2AE2
:1009DA00070B480000076AE569B4FF037569061248
:1009EA000665FC120665FD120665FE120665FF78AD
:1009FA005F0201C0790AA2D5200314300509B91093
:100A0A00020404B9080104A2D520060250010420F8
:100A1A0002689202B568005034C0E07F20300319A2
:100A2A007F30A20272067205500F120A57C202C222
:100A3A0006C205C2087F30800F300503E9C0E01204
:100A4A0006A0300503D0E0F9D0E0B568CC30051730
:100A5A007F30B9100C1206A07F583004077F7880C7
:100A6A0003B908031206A03002057F2D0206A07FF3
:100A7A00202008F87F2B2006F322920280CF7F00E5
:100A8A00B407005005245FF8E6FF22286E756C6CE7
:100A9A002900D2011206653001F8C201786830D502
:100AAA000108F602070B2D50434958120665240324
:100ABA00B405004001E4900AB093120691743A1208
:0A0ACA000691D2037568040208DDEE
:10014700E9D2E7C933E833F892D5EDD2E7CD33ECFE
:0701570033FC5002B2D52277
:10015E00EC30E7100FBF000C0EBE00080DBD000402
:10016E000BEB6014A2D5EB13FCED92E7FD2274FFAE
:10017E00FCFDFEFF22E480F8A2D574FF13FC7D8007
:03018E00E480EF1B
:10019100F920E72824F950037907E4F42402FB1835
:1001A100DBFDE624FB5014E9600DE4F618E604F6E5
:0F01B100B40A08E4F6D9F57401F60A22C2D52281
:1001C000ED33EC3392D5FA602AB4FF33EDC2E77B0E
:1001D000FF60067A0179E5E4227A0179EE20D50400
:1001E0007A0179E9224E614E002B494E46002D4995
:1001F0004E4600E47A08F608DAFC7B00740722E831
:10020000C0E0ECC0E0EDC0E0EEC0E0EFC0E0EA75B9
:10021000F010A4CAABF075F04DA42BFBE435F0FC54
:10022000EA2410FAEB34C5FBEC34D9FCEDC2E7FF4D
:1002300075F056A4F42411C5F0F434C58FF0A42A47
:10024000E5F03BE43CF620E71412048BD0E0FFD04D
:10025000E0FED0E0FDD0E0FC1203BE8014F40412F6
:10026000048BD0E0FFD0E0FED0E0FDD0E0FC120037
:1002700003D0E0F8E6FAEDD2E7CD33EC332482FB8D
:10028000E4C3CF33CFCE33CECD33CD33DBF37B07D7
:1002900075F00A846004F6081B0AE5F0F6088FF092
:1002A000740AA4FFACF08EF0740AA42CFEACF050DB
:1002B000010C8DF0740AA42CFDE435F0F608DBDEA9
:0302C0007407229E
:1002C30002017CE86480F8E933E83360110460F0EC
:1002D300ED33EC337009E8FCE9FDEAFEEBFF2204A1
:1002E30060DED3EB9FEA9EE99DE8C2E78CF0C2F79C
:1002F30095F0400CE8CCF8E9CDF9EACEFAEBCFFB68
:1003030012014785D0F05804700320D5B3E8047078
:10031300075002B2D502018692D5EC0460F7E4CC13
:10032300C0E0C398F8603B94186008400DD0E0FB30
:1003330002015EE4FBFAC9FC8028E830E406E4C964
:10034300FBE4CAFCE830E305E4C9CACBFCE8540784
:100353006010F8C3E913F9EA13FAEB13FBEC13FC8F
:10036300D8F130F52FC3E49CFCEF9BFFEE9AFEED32
:1003730099FDD0E0FBEF4E4D4C701222DB030201DE
:1003830083EC2CFCEF33FFEE33FEED33FDED30E772
:10039300EB02015EEF2BFFEE3AFEED39FDD0E0FB01
:1003A30050130BBB0003020186ED13FDEE13FEEFAA
:0803B30013FFEC13FC02015ED4
:1003BB00020186EC5D046005E85904700302017CC0
:1003CB00120147580460F6EC4860F2EC7004FDFE35
:1003DB00FF22C860DB2481C85009C3986002500615
:1003EB000201839850CAF582E9294B4A7005AB820A
:1003FB0002017275F0007C1A7880C3EF9BEE9AEDC8
:10040B0099400DC3EF9BFFEE9AFEED99FDE842F08C
:10041B00DC23ACF0D0E0FFD0E0FED0E0FDAB8220DF
:10042B00E7101BEB60BAEC2CFCEF33FFEE33FEED69
:10043B0033FD02015EE803F830E705C0F075F0000C
:10044B00EF2FFFEE33FEED33FD40B830E7C280AA4D
:10045B003F8000004120000042C80000447A0000A9
:10046B00461C400047C35000497424004B1896802B
:10047B004CBEBC205A0E1BCA6753C21C749DC5AE22
:10048B00FB60065407601C23231204B9EB5438603D
:10049B00091204A51204B4120003ECF8EDF9EEFAFC
:1004AB00EFCB22EB1204B480F1543803241C9004DC
:1004BB005BFE93FC0EEE93FD0EEE930ECE93FF229E
:1004CB00BB010689828A83E0225002E722BBFE022F
:0904DB00E32289828A83E4932262
:1004E400BB010CE58229F582E5833AF583E02250CD
:1004F40006E92582F8E622BBFE06E92582F8E22217
:0D050400E58229F582E5833AF583E4932230
:10051100BB010689828A83F0225002F722BBFE01C9
:02052100F322C3
:1005230075F008758200EF2FFFEE33FECD33CDCC8F
:1005330033CCC58233C5829BED9AEC99E582984012
:100543000CF582EE9BFEED9AFDEC99FC0FD5F0D6EF
:10055300E4CEFBE4CDFAE4CCF9A88222B800C1B919
:100563000059BA002DEC8BF084CFCECDFCE5F0CB57
:10057300F97818EF2FFFEE33FEED33FDEC33FCEB90
:1005830033FB10D703994004EB99FB0FD8E5E4F94B
:10059300FA227818EF2FFFEE33FEED33FDEC33FC38
:1005A300C933C910D7059BE99A4007EC9BFCE99A2C
:1005B300F90FD8E0E4C9FAE4CCFB2275F010EF2F71
:1005C300FFEE33FEED33FDCC33CCC833C810D70771
:1005D3009BEC9AE899400AED9BFDEC9AFCE899F8AC
:0E05E3000FD5F0DAE4CDFBE4CCFAE4C8F9223F
:0E05F100C3E49FFFE49EFEE49DFDE49CFC221B
:1005FF00EB9FF5F0EA9E42F0E99D42F0E89C45F052
:01060F0022C8
:10061000E8600FECC313FCED13FDEE13FEEF13FFC8
:03062000D8F122EC
:0C062300A42582F582E5F03583F58322E2
:10062F00FAE6FB0808E6F925F0F618E6CA3AF622CC
:10063F00D083D082F8E4937012740193700DA3A34A
:10064F0093F8740193F5828883E47374029368605E
:06065F00EFA3A3A380DF5E
:10191300EFB40A07740D12191E740A309811A899AE
:10192300B8130CC2983098FDA899C298B811F63034
:0719330099FDC299F599220C
:00000001FF
